S012000053746F705F57617463682E7372656316
S11300000C942A000C9447000C9447000C9447006D
S11300100C9447000C9447000C9447000C94470040
S11300200C9447000C9447000C9447000C94470030
S11300300C9447000C9447000C9447000C94470020
S11300400C9447000C9447000C9447000C94470010
S11300500C94470011241FBECFE5D8E0DEBFCDBF0E
S113006010E0A0E6B0E0E4EEF6E002C005900D92E8
S1130070A039B107D9F720E0A0E9B0E001C01D9292
S1130080A339B207E1F70E9490010C9470030C9419
S113009000000E94930280E00E943E018095682F38
S11300A0660F81E00E94600361E087E10E94A30281
S11300B061E086E10E94A3020895811106C0809147
S11300C092008F5F80939200089580919200865FE2
S11300D080939200089561E085E10E94A30208954F
S11300E08BE10E942803811106C0809191008093C6
S11300F09200109290000895CF93C82F46C08AE1D1
S11301000E942803811115C00E945D009091920005
S11301108DEC989F812D1124869586958695880F60
S1130120282F220F220F820F981303C09A50909306
S113013092008BE10E942803811118C081E00E9483
S11301405D00909192008CE9890F8A3078F48DECEF
S1130150989F812D1124869586958695880F282F42
S1130160220F220F820F981B90939200809192008D
S11301700E9444018CE10E942803811106C08091F1
S1130180920080939100C1E075C0CC2309F4B7CFED
S113019071C0809192000E9444018091920081116B
S11301A015C00E946B000DC0809192000E94440112
S11301B08CE10E942803811104C010929000C0E0D9
S11301C005C08BE10E942803813071F38091920075
S11301D081508093920006C010929000809192000A
S11301E00E9444018AE10E9428038823A9F30E9403
S11301F070008CE10E94280381110EC005C080911B
S113020092000E944401C0E08CE10E9428038823EC
S1130210B1F3109290002AC080919000813009F4CB
S1130220B8CF24C00E947000809192000E944401C3
S113023007C081E080939000809192000E94440165
S11302408AE10E9428038823A1F38CE10E942803F9
S113025081110CC005C0809192000E944401C0E04D
S11302608CE10E9428038823B1F304C0809190009C
S11302708823C1F2C13081F2CF910895E82FF0E0D4
S1130280E058FF4F808108951F93CF93DF93DDECF7
S11302908D9FD12D11241D2F169516951695110F8E
S11302A0912F990F990F190F811B182FD695D69559
S11302B0D695C0E02FC061E087E10E94A302812FA0
S11302C00E943E018095682F660F81E00E946003C2
S11302D08FE097E20197F1F700C0000060E087E14A
S11302E00E94A30261E086E10E94A3028D2F0E9476
S11302F03E018095682F660F81E00E9460038FE0C5
S113030097E20197F1F700C0000060E086E10E94E7
S1130310A302CF5FC43178F2DF91CF911F9108958A
S11303200E94490080E00E947C00FCCF982F9695A3
S1130330969596958770613009F455C020F0623027
S113034009F4A1C008959130C1F028F0923039F138
S11303509330B9F108954AB321E030E0B90102C005
S1130360660F771F8A95E2F7CB01942F982B9ABBDF
S11303709BB3809589238BBB089547B321E030E07C
S1130380B90102C0660F771F8A95E2F7CB01942F5B
S1130390982B97BB98B38095892388BB089544B361
S11303A021E030E0B90102C0660F771F8A95E2F7B9
S11303B0CB01942F982B94BB95B38095892385BB4F
S11303C0089541B321E030E0B90102C0660F771F00
S11303D08A95E2F7CB01942F982B91BB92B3809529
S11303E0892382BB08959130C1F028F0923039F10D
S11303F09330B9F108954AB321E030E0B90102C065
S1130400660F771F8A95E2F7CB018095942F982386
S11304109ABB9BB389238BBB089547B321E030E09B
S1130420B90102C0660F771F8A95E2F7CB01809568
S1130430942F982397BB98B3892388BB089544B31A
S113044021E030E0B90102C0660F771F8A95E2F718
S1130450CB018095942F982394BB95B3892385BBB6
S1130460089541B321E030E0B90102C0660F771F5F
S11304708A95E2F7CB018095942F982391BB92B390
S1130480892382BB08959130C1F028F0923039F16C
S11304909330B9F108954AB321E030E0B90102C0C4
S11304A0660F771F8A95E2F7CB01962F90959423D8
S11304B09ABB9BB3892B8BBB089547B321E030E0F3
S11304C0B90102C0660F771F8A95E2F7CB01962F18
S11304D09095942397BB98B3892B88BB089544B314
S11304E021E030E0B90102C0660F771F8A95E2F778
S11304F0CB01962F9095942394BB95B3892B85BB00
S1130500089541B321E030E0B90102C0660F771FBE
S11305108A95E2F7CB01962F9095942391BB92B3E1
S1130520892B82BB0895CF93C0E009C0EC2FF0E083
S1130530E05AFF4F60818C2F0E949601CF5FC0323A
S1130540A8F3CF910895982F9695969596958770D0
S11305506130E1F5913099F028F09230E9F0933070
S113056041F108954BB321E030E0B90102C0660FB8
S1130570771F8A95E2F7CB01842B8BBB089548B390
S113058021E030E0B90102C0660F771F8A95E2F7D7
S1130590CB01842B88BB089545B321E030E0B90139
S11305A002C0660F771F8A95E2F7CB01842B85BBC7
S11305B0089542B321E030E0B90102C0660F771F0D
S11305C08A95E2F7CB01842B82BB089561113FC069
S11305D09130A1F028F09230F9F0933059F1089558
S11305E04BB321E030E0B90102C0660F771F8A9552
S11305F0E2F7CB01809584238BBB089548B321E0B7
S113060030E0B90102C0660F771F8A95E2F7CB018B
S11306108095842388BB089545B321E030E0B90177
S113062002C0660F771F8A95E2F7CB018095842379
S113063085BB089542B321E030E0B90102C0660FE2
S1130640771F8A95E2F7CB018095842382BB0895B6
S1130650982F969596959695482F4770913081F0EE
S113066028F09230B9F09330F9F028C099B3892F6B
S113067090E002C0959587954A95E2F781700895B8
S113068026B330E0C90102C0959587954A95E2F7F3
S11306908170089523B330E0C90102C09595879510
S11306A04A95E2F78170089520B330E0C90102C091
S11306B0959587954A95E2F78170089580E00895AD
S11306C0813041F028F0823039F0833039F00895D8
S11306D06BBB089568BB089565BB089562BB08951C
S10706E0F894FFCFB8
S11306E402020202000000020000000000000000F8
S11306F400000000000000000000020202000000EC
S11307043F065B4F666D7D077F6F777C585E79711A
S9030000FC
